{
  "contractName": "MANETokenPartnerCrowdsale",
  "abi": [
    {
      "constant": true,
      "inputs": [],
      "name": "tokenPoolAddress",
      "outputs": [
        {
          "name": "",
          "type": "address"
        }
      ],
      "payable": false,
      "stateMutability": "view",
      "type": "function"
    },
    {
      "constant": true,
      "inputs": [],
      "name": "rate",
      "outputs": [
        {
          "name": "",
          "type": "uint256"
        }
      ],
      "payable": false,
      "stateMutability": "view",
      "type": "function"
    },
    {
      "constant": true,
      "inputs": [],
      "name": "endTime",
      "outputs": [
        {
          "name": "",
          "type": "uint256"
        }
      ],
      "payable": false,
      "stateMutability": "view",
      "type": "function"
    },
    {
      "constant": true,
      "inputs": [],
      "name": "weiRaised",
      "outputs": [
        {
          "name": "",
          "type": "uint256"
        }
      ],
      "payable": false,
      "stateMutability": "view",
      "type": "function"
    },
    {
      "constant": true,
      "inputs": [],
      "name": "wallet",
      "outputs": [
        {
          "name": "",
          "type": "address"
        }
      ],
      "payable": false,
      "stateMutability": "view",
      "type": "function"
    },
    {
      "constant": true,
      "inputs": [],
      "name": "partner2",
      "outputs": [
        {
          "name": "",
          "type": "address"
        }
      ],
      "payable": false,
      "stateMutability": "view",
      "type": "function"
    },
    {
      "constant": true,
      "inputs": [],
      "name": "owner",
      "outputs": [
        {
          "name": "",
          "type": "address"
        }
      ],
      "payable": false,
      "stateMutability": "view",
      "type": "function"
    },
    {
      "constant": true,
      "inputs": [],
      "name": "partner1",
      "outputs": [
        {
          "name": "",
          "type": "address"
        }
      ],
      "payable": false,
      "stateMutability": "view",
      "type": "function"
    },
    {
      "constant": false,
      "inputs": [
        {
          "name": "newOwner",
          "type": "address"
        }
      ],
      "name": "transferOwnership",
      "outputs": [],
      "payable": false,
      "stateMutability": "nonpayable",
      "type": "function"
    },
    {
      "constant": true,
      "inputs": [],
      "name": "token",
      "outputs": [
        {
          "name": "",
          "type": "address"
        }
      ],
      "payable": false,
      "stateMutability": "view",
      "type": "function"
    },
    {
      "inputs": [
        {
          "name": "_endTime",
          "type": "uint256"
        },
        {
          "name": "_rate",
          "type": "uint256"
        },
        {
          "name": "_wallet",
          "type": "address"
        },
        {
          "name": "_partner1",
          "type": "address"
        },
        {
          "name": "_partner2",
          "type": "address"
        },
        {
          "name": "tokenAddress",
          "type": "address"
        },
        {
          "name": "_tokenHolder",
          "type": "address"
        }
      ],
      "payable": false,
      "stateMutability": "nonpayable",
      "type": "constructor"
    },
    {
      "payable": true,
      "stateMutability": "payable",
      "type": "fallback"
    },
    {
      "anonymous": false,
      "inputs": [
        {
          "indexed": true,
          "name": "purchaser",
          "type": "address"
        },
        {
          "indexed": true,
          "name": "beneficiary",
          "type": "address"
        },
        {
          "indexed": false,
          "name": "value",
          "type": "uint256"
        },
        {
          "indexed": false,
          "name": "amount",
          "type": "uint256"
        }
      ],
      "name": "TokenPurchase",
      "type": "event"
    },
    {
      "anonymous": false,
      "inputs": [
        {
          "indexed": false,
          "name": "main",
          "type": "uint256"
        },
        {
          "indexed": false,
          "name": "partner1",
          "type": "uint256"
        },
        {
          "indexed": false,
          "name": "partner2",
          "type": "uint256"
        }
      ],
      "name": "Cuts",
      "type": "event"
    },
    {
      "anonymous": false,
      "inputs": [
        {
          "indexed": true,
          "name": "previousOwner",
          "type": "address"
        },
        {
          "indexed": true,
          "name": "newOwner",
          "type": "address"
        }
      ],
      "name": "OwnershipTransferred",
      "type": "event"
    },
    {
      "constant": false,
      "inputs": [
        {
          "name": "_rate",
          "type": "uint256"
        }
      ],
      "name": "updateRate",
      "outputs": [
        {
          "name": "",
          "type": "bool"
        }
      ],
      "payable": false,
      "stateMutability": "nonpayable",
      "type": "function"
    },
    {
      "constant": false,
      "inputs": [
        {
          "name": "_wallet",
          "type": "address"
        }
      ],
      "name": "updateWallet",
      "outputs": [
        {
          "name": "",
          "type": "bool"
        }
      ],
      "payable": false,
      "stateMutability": "nonpayable",
      "type": "function"
    },
    {
      "constant": false,
      "inputs": [
        {
          "name": "_tokenAddress",
          "type": "address"
        }
      ],
      "name": "updateTokenAddress",
      "outputs": [
        {
          "name": "",
          "type": "bool"
        }
      ],
      "payable": false,
      "stateMutability": "nonpayable",
      "type": "function"
    },
    {
      "constant": false,
      "inputs": [
        {
          "name": "_tokenHolder",
          "type": "address"
        }
      ],
      "name": "updateTokenPoolAddress",
      "outputs": [
        {
          "name": "",
          "type": "bool"
        }
      ],
      "payable": false,
      "stateMutability": "nonpayable",
      "type": "function"
    },
    {
      "constant": false,
      "inputs": [
        {
          "name": "_endTime",
          "type": "uint256"
        }
      ],
      "name": "updateEndTime",
      "outputs": [
        {
          "name": "",
          "type": "bool"
        }
      ],
      "payable": false,
      "stateMutability": "nonpayable",
      "type": "function"
    },
    {
      "constant": false,
      "inputs": [
        {
          "name": "beneficiary",
          "type": "address"
        }
      ],
      "name": "buyTokens",
      "outputs": [
        {
          "name": "",
          "type": "bool"
        }
      ],
      "payable": true,
      "stateMutability": "payable",
      "type": "function"
    },
    {
      "constant": true,
      "inputs": [],
      "name": "hasEnded",
      "outputs": [
        {
          "name": "",
          "type": "bool"
        }
      ],
      "payable": false,
      "stateMutability": "view",
      "type": "function"
    }
  ],
  "bytecode": "0x6060604052341561000f57600080fd5b60405160e0806112bf83398101604052808051906020019091908051906020019091908051906020019091908051906020019091908051906020019091908051906020019091908051906020019091905050336000806101000a81548173ffffffffffffffffffffffffffffffffffffffff021916908373ffffffffffffffffffffffffffffffffffffffff1602179055506000871115156100b057600080fd5b6000861115156100bf57600080fd5b60008573ffffffffffffffffffffffffffffffffffffffff16141515156100e557600080fd5b60008473ffffffffffffffffffffffffffffffffffffffff161415151561010b57600080fd5b60008373ffffffffffffffffffffffffffffffffffffffff161415151561013157600080fd5b60008173ffffffffffffffffffffffffffffffffffffffff161415151561015757600080fd5b81600160006101000a81548173ffffffffffffffffffffffffffffffffffffffff021916908373ffffffffffffffffffffffffffffffffffffffff160217905550866002819055508560078190555084600360006101000a81548173ffffffffffffffffffffffffffffffffffffffff021916908373ffffffffffffffffffffffffffffffffffffffff16021790555083600460006101000a81548173ffffffffffffffffffffffffffffffffffffffff021916908373ffffffffffffffffffffffffffffffffffffffff16021790555082600560006101000a81548173ffffffffffffffffffffffffffffffffffffffff021916908373ffffffffffffffffffffffffffffffffffffffff16021790555080600660006101000a81548173ffffffffffffffffffffffffffffffffffffffff021916908373ffffffffffffffffffffffffffffffffffffffff16021790555050505050505050610fff806102c06000396000f3006060604052600436106100f1576000357c0100000000000000000000000000000000000000000000000000000000900463ffffffff168063298d075f146100fd5780632c4e722e146101525780633197cbb61461017b5780634042b66f146101a4578063412ec94f146101cd578063521eb2731461021e5780636691461a1461027357806369ea1771146102c45780636ab3846b146102ff578063848b86e31461033a5780638b35a2441461038b5780638da5cb5b146103e0578063a4c7c7b314610435578063ec8ac4d81461048a578063ecb70fb7146104d0578063f2fde38b146104fd578063fc0c546a14610536575b6100fa3361058b565b50005b341561010857600080fd5b6101106107bc565b604051808273ffffffffffffffffffffffffffffffffffffffff1673ffffffffffffffffffffffffffffffffffffffff16815260200191505060405180910390f35b341561015d57600080fd5b6101656107e2565b6040518082815260200191505060405180910390f35b341561018657600080fd5b61018e6107e8565b6040518082815260200191505060405180910390f35b34156101af57600080fd5b6101b76107ee565b6040518082815260200191505060405180910390f35b34156101d857600080fd5b610204600480803573ffffffffffffffffffffffffffffffffffffffff169060200190919050506107f4565b604051808215151515815260200191505060405180910390f35b341561022957600080fd5b6102316108c1565b604051808273ffffffffffffffffffffffffffffffffffffffff1673ffffffffffffffffffffffffffffffffffffffff16815260200191505060405180910390f35b341561027e57600080fd5b6102aa600480803573ffffffffffffffffffffffffffffffffffffffff169060200190919050506108e7565b604051808215151515815260200191505060405180910390f35b34156102cf57600080fd5b6102e560048080359060200190919050506109b4565b604051808215151515815260200191505060405180910390f35b341561030a57600080fd5b6103206004808035906020019091905050610a30565b604051808215151515815260200191505060405180910390f35b341561034557600080fd5b610371600480803573ffffffffffffffffffffffffffffffffffffffff16906020019091905050610a9d565b604051808215151515815260200191505060405180910390f35b341561039657600080fd5b61039e610b6a565b604051808273ffffffffffffffffffffffffffffffffffffffff1673ffffffffffffffffffffffffffffffffffffffff16815260200191505060405180910390f35b34156103eb57600080fd5b6103f3610b90565b604051808273ffffffffffffffffffffffffffffffffffffffff1673ffffffffffffffffffffffffffffffffffffffff16815260200191505060405180910390f35b341561044057600080fd5b610448610bb5565b604051808273ffffffffffffffffffffffffffffffffffffffff1673ffffffffffffffffffffffffffffffffffffffff16815260200191505060405180910390f35b6104b6600480803573ffffffffffffffffffffffffffffffffffffffff1690602001909190505061058b565b604051808215151515815260200191505060405180910390f35b34156104db57600080fd5b6104e3610bdb565b604051808215151515815260200191505060405180910390f35b341561050857600080fd5b610534600480803573ffffffffffffffffffffffffffffffffffffffff16906020019091905050610be7565b005b341561054157600080fd5b610549610d3c565b604051808273ffffffffffffffffffffffffffffffffffffffff1673ffffffffffffffffffffffffffffffffffffffff16815260200191505060405180910390f35b6000806000808473ffffffffffffffffffffffffffffffffffffffff16141515156105b557600080fd5b6105bd610d62565b15156105c857600080fd5b3491506105e060075483610d8490919063ffffffff16565b90506105f782600854610db790919063ffffffff16565b600881905550600160009054906101000a900473ffffffffffffffffffffffffffffffffffffffff1673ffffffffffffffffffffffffffffffffffffffff166323b872dd600660009054906101000a900473ffffffffffffffffffffffffffffffffffffffff1686846000604051602001526040518463ffffffff167c0100000000000000000000000000000000000000000000000000000000028152600401808473ffffffffffffffffffffffffffffffffffffffff1673ffffffffffffffffffffffffffffffffffffffff1681526020018373ffffffffffffffffffffffffffffffffffffffff1673ffffffffffffffffffffffffffffffffffffffff1681526020018281526020019350505050602060405180830381600087803b151561072057600080fd5b6102c65a03f1151561073157600080fd5b50505060405180519050508373ffffffffffffffffffffffffffffffffffffffff163373ffffffffffffffffffffffffffffffffffffffff167f623b3804fa71d67900d064613da8f94b9617215ee90799290593e1745087ad188484604051808381526020018281526020019250505060405180910390a36107b1610dd5565b600192505050919050565b600660009054906101000a900473ffffffffffffffffffffffffffffffffffffffff1681565b60075481565b60025481565b60085481565b60008060009054906101000a900473ffffffffffffffffffffffffffffffffffffffff1673ffffffffffffffffffffffffffffffffffffffff163373ffffffffffffffffffffffffffffffffffffffff1614151561085157600080fd5b60008273ffffffffffffffffffffffffffffffffffffffff161415151561087757600080fd5b81600660006101000a81548173ffffffffffffffffffffffffffffffffffffffff021916908373ffffffffffffffffffffffffffffffffffffffff16021790555060019050919050565b600360009054906101000a900473ffffffffffffffffffffffffffffffffffffffff1681565b60008060009054906101000a900473ffffffffffffffffffffffffffffffffffffffff1673ffffffffffffffffffffffffffffffffffffffff163373ffffffffffffffffffffffffffffffffffffffff1614151561094457600080fd5b60008273ffffffffffffffffffffffffffffffffffffffff161415151561096a57600080fd5b81600160006101000a81548173ffffffffffffffffffffffffffffffffffffffff021916908373ffffffffffffffffffffffffffffffffffffffff16021790555060019050919050565b60008060009054906101000a900473ffffffffffffffffffffffffffffffffffffffff1673ffffffffffffffffffffffffffffffffffffffff163373ffffffffffffffffffffffffffffffffffffffff16141515610a1157600080fd5b600082111515610a2057600080fd5b8160078190555060019050919050565b60008060009054906101000a900473ffffffffffffffffffffffffffffffffffffffff1673ffffffffffffffffffffffffffffffffffffffff163373ffffffffffffffffffffffffffffffffffffffff16141515610a8d57600080fd5b8160028190555060019050919050565b60008060009054906101000a900473ffffffffffffffffffffffffffffffffffffffff1673ffffffffffffffffffffffffffffffffffffffff163373ffffffffffffffffffffffffffffffffffffffff16141515610afa57600080fd5b60008273ffffffffffffffffffffffffffffffffffffffff1614151515610b2057600080fd5b81600360006101000a81548173ffffffffffffffffffffffffffffffffffffffff021916908373ffffffffffffffffffffffffffffffffffffffff16021790555060019050919050565b600560009054906101000a900473ffffffffffffffffffffffffffffffffffffffff1681565b6000809054906101000a900473ffffffffffffffffffffffffffffffffffffffff1681565b600460009054906101000a900473ffffffffffffffffffffffffffffffffffffffff1681565b60006002544211905090565b6000809054906101000a900473ffffffffffffffffffffffffffffffffffffffff1673ffffffffffffffffffffffffffffffffffffffff163373ffffffffffffffffffffffffffffffffffffffff16141515610c4257600080fd5b600073ffffffffffffffffffffffffffffffffffffffff168173ffffffffffffffffffffffffffffffffffffffff1614151515610c7e57600080fd5b8073ffffffffffffffffffffffffffffffffffffffff166000809054906101000a900473ffffffffffffffffffffffffffffffffffffffff1673ffffffffffffffffffffffffffffffffffffffff167f8be0079c531659141344cd1fd0a4f28419497f9722a3daafe3b4186f6b6457e060405160405180910390a3806000806101000a81548173ffffffffffffffffffffffffffffffffffffffff021916908373ffffffffffffffffffffffffffffffffffffffff16021790555050565b600160009054906101000a900473ffffffffffffffffffffffffffffffffffffffff1681565b60008060003414159050610d74610bdb565b158015610d7e5750805b91505090565b60008082840290506000841480610da55750828482811515610da257fe5b04145b1515610dad57fe5b8091505092915050565b6000808284019050838110151515610dcb57fe5b8091505092915050565b6000806000610dee600a34610f9f90919063ffffffff16565b9250610e04606434610f9f90919063ffffffff16565b9150610e2b82610e1d8534610fba90919063ffffffff16565b610fba90919063ffffffff16565b90507fb04699b1232faa90f590ae680308c4d6c041784afd4363d5a17108ee70f465d381848460405180848152602001838152602001828152602001935050505060405180910390a1600360009054906101000a900473ffffffffffffffffffffffffffffffffffffffff1673ffffffffffffffffffffffffffffffffffffffff166108fc829081150290604051600060405180830381858888f193505050501515610ed657600080fd5b600460009054906101000a900473ffffffffffffffffffffffffffffffffffffffff1673ffffffffffffffffffffffffffffffffffffffff166108fc849081150290604051600060405180830381858888f193505050501515610f3857600080fd5b600560009054906101000a900473ffffffffffffffffffffffffffffffffffffffff1673ffffffffffffffffffffffffffffffffffffffff166108fc839081150290604051600060405180830381858888f193505050501515610f9a57600080fd5b505050565b6000808284811515610fad57fe5b0490508091505092915050565b6000828211151515610fc857fe5b8183039050929150505600a165627a7a72305820815445da016c2bc8e3561a48d3b0af74df1c6eb59e699fa324395b90f651274d0029",
  "source": "pragma solidity ^0.4.11;\n\nimport 'zeppelin/contracts/token/StandardToken.sol';\nimport 'zeppelin/contracts/math/SafeMath.sol';\nimport 'zeppelin/contracts/ownership/Ownable.sol';\n\ncontract MANETokenPartnerCrowdsale is Ownable {\n  using SafeMath for uint256;\n\n  // The token being sold\n  StandardToken public token;\n\n  // start and end timestamps where investments are allowed (both inclusive)\n  uint256 public endTime;\n\n  // address where funds are collected\n  address public wallet;\n  address public partner1;\n  address public partner2;\n  address public tokenPoolAddress;\n\n  // how many token units a buyer gets per wei\n  uint256 public rate;\n\n  // amount of raised money in wei\n  uint256 public weiRaised;\n\n  /**\n   * event for token purchase logging\n   * @param purchaser who paid for the tokens\n   * @param beneficiary who got the tokens\n   * @param value weis paid for purchase\n   * @param amount amount of tokens purchased\n   */\n  event TokenPurchase(address indexed purchaser, address indexed beneficiary, uint256 value, uint256 amount);\n  event Cuts(uint main, uint partner1, uint partner2);\n\n  function MANETokenPartnerCrowdsale(\n    uint256 _endTime,\n    uint256 _rate,\n    address _wallet,\n    address _partner1,\n    address _partner2,\n    address tokenAddress,\n    address _tokenHolder\n  ) Ownable() {\n    require(_endTime > 0);\n    require(_rate > 0);\n    require(_wallet != 0x0);\n    require(_partner1 != 0x0);\n    require(_partner2 != 0x0);\n    require(_tokenHolder != 0x0);\n\n    token = StandardToken(tokenAddress);\n    endTime = _endTime;\n    rate = _rate;\n    wallet = _wallet;\n    partner1 = _partner1;\n    partner2 = _partner2;\n    tokenPoolAddress = _tokenHolder;\n  }\n\n  // fallback function can be used to buy tokens\n  function () public payable {\n    buyTokens(msg.sender);\n  }\n\n  function updateRate(uint256 _rate) onlyOwner external returns (bool) {\n    require(_rate > 0);\n    rate = _rate;\n    return true;\n  }\n\n  function updateWallet(address _wallet) onlyOwner external returns (bool) {\n    require(_wallet != 0x0);\n    wallet = _wallet;\n\n    return true;\n  }\n\n  function updateTokenAddress(address _tokenAddress) onlyOwner external returns (bool) {\n    require(_tokenAddress != 0x0);\n    token = StandardToken(_tokenAddress);\n\n    return true;\n  }\n\n  function updateTokenPoolAddress(address _tokenHolder) onlyOwner external returns (bool) {\n    require(_tokenHolder != 0x0);\n    tokenPoolAddress = _tokenHolder;\n    return true;\n  }\n\n  function updateEndTime(uint256 _endTime) onlyOwner external returns (bool){\n    endTime = _endTime;\n    return true;\n  }\n\n  // low level token purchase function\n  function buyTokens(address beneficiary) public payable returns (bool){\n    require(beneficiary != 0x0);\n    require(validPurchase());\n\n    uint256 weiAmount = msg.value;\n\n    // calculate token amount to be created\n    uint256 tokens = weiAmount.mul(rate);\n\n    // update state\n    weiRaised = weiRaised.add(weiAmount);\n\n    token.transferFrom(tokenPoolAddress, beneficiary, tokens);\n    TokenPurchase(msg.sender, beneficiary, weiAmount, tokens);\n\n    forwardFunds();\n\n    return true;\n  }\n\n  // send ether to the fund collection wallet\n  // override to create custom fund forwarding mechanisms\n  function forwardFunds() internal {\n    uint partner1Cut = msg.value.div(10);\n    uint partner2Cut = msg.value.div(100);\n    uint remainingFunds = msg.value.sub(partner1Cut).sub(partner2Cut);\n\n    Cuts(remainingFunds, partner1Cut, partner2Cut);\n\n    wallet.transfer(remainingFunds);\n    partner1.transfer(partner1Cut);\n    partner2.transfer(partner2Cut);\n  }\n\n  // @return true if the transaction can buy tokens\n  function validPurchase() internal constant returns (bool) {\n    bool nonZeroPurchase = msg.value != 0;\n    return !hasEnded() && nonZeroPurchase;\n  }\n\n  // @return true if crowdsale event has ended\n  function hasEnded() public constant returns (bool) {\n    return now > endTime;\n  }\n}\n",
  "sourcePath": "/Users/Freydal/RubymineProjects/manecoin-website/truffle/contracts/MANETokenPartnerCrowdsale.sol",
  "compiler": {
    "name": "solc",
    "version": "0.4.19+commit.c4cbbb05.Emscripten.clang"
  },
  "schemaVersion": "2.0.0",
  "updatedAt": "2018-03-20T14:59:23.736Z"
}